{
  "contractName": "DigitalObjectIdentifier",
  "abi": [
    {
      "inputs": [
        {
          "internalType": "string",
          "name": "_data",
          "type": "string"
        }
      ],
      "name": "registerObject",
      "outputs": [],
      "stateMutability": "nonpayable",
      "type": "function"
    },
    {
      "inputs": [
        {
          "internalType": "uint256",
          "name": "_id",
          "type": "uint256"
        }
      ],
      "name": "getObject",
      "outputs": [
        {
          "internalType": "string",
          "name": "",
          "type": "string"
        }
      ],
      "stateMutability": "view",
      "type": "function",
      "constant": true
    },
    {
      "inputs": [],
      "name": "getObjectCount",
      "outputs": [
        {
          "internalType": "uint256",
          "name": "",
          "type": "uint256"
        }
      ],
      "stateMutability": "view",
      "type": "function",
      "constant": true
    }
  ],
  "bytecode": "0x608060405234801561001057600080fd5b5061048f806100206000396000f3fe608060405234801561001057600080fd5b50600436106100415760003560e01c80631a848cfb1461004657806328316b391461005c578063f809f4611461007c575b600080fd5b6001546040519081526020015b60405180910390f35b61006f61006a3660046101bb565b610091565b60405161005391906101d4565b61008f61008a366004610238565b610187565b005b60606000821180156100a557506001548211155b6100e95760405162461bcd60e51b8152602060048201526011602482015270125b9d985b1a59081bd89a9958dd081251607a1b604482015260640160405180910390fd5b60008281526020819052604090208054610102906102e9565b80601f016020809104026020016040519081016040528092919081815260200182805461012e906102e9565b801561017b5780601f106101505761010080835404028352916020019161017b565b820191906000526020600020905b81548152906001019060200180831161015e57829003601f168201915b50505050509050919050565b6001805490600061019783610323565b909155505060015460009081526020819052604090206101b78282610399565b5050565b6000602082840312156101cd57600080fd5b5035919050565b600060208083528351808285015260005b81811015610201578581018301518582016040015282016101e5565b506000604082860101526040601f19601f8301168501019250505092915050565b634e487b7160e01b600052604160045260246000fd5b60006020828403121561024a57600080fd5b813567ffffffffffffffff8082111561026257600080fd5b818401915084601f83011261027657600080fd5b81358181111561028857610288610222565b604051601f8201601f19908116603f011681019083821181831017156102b0576102b0610222565b816040528281528760208487010111156102c957600080fd5b826020860160208301376000928101602001929092525095945050505050565b600181811c908216806102fd57607f821691505b60208210810361031d57634e487b7160e01b600052602260045260246000fd5b50919050565b60006001820161034357634e487b7160e01b600052601160045260246000fd5b5060010190565b601f82111561039457600081815260208120601f850160051c810160208610156103715750805b601f850160051c820191505b818110156103905782815560010161037d565b5050505b505050565b815167ffffffffffffffff8111156103b3576103b3610222565b6103c7816103c184546102e9565b8461034a565b602080601f8311600181146103fc57600084156103e45750858301515b600019600386901b1c1916600185901b178555610390565b600085815260208120601f198616915b8281101561042b5788860151825594840194600190910190840161040c565b50858210156104495787850151600019600388901b60f8161c191681555b5050505050600190811b0190555056fea26469706673582212204e09081f293725dc9c0eca6b90d883f6223a5ac7f92a93190c411e52ad53eab064736f6c63430008130033",
  "immutableReferences": {},
  "source": "// DigitalObjectIdentifier.sol\npragma solidity ^0.8.10;\n\ncontract DigitalObjectIdentifier {\n    mapping(uint256 => string) private objects;\n    uint256 private objectCount;\n\n    function registerObject(string memory _data) public {\n        objectCount++;\n        objects[objectCount] = _data;\n    }\n\n    function getObject(uint256 _id) public view returns (string memory) {\n        require(_id > 0 && _id <= objectCount, \"Invalid object ID\");\n        return objects[_id];\n    }\n\n    function getObjectCount() public view returns (uint256) {\n        return objectCount;\n    }\n}",
  "sourcePath": "/Users/arif/Metaverse/Projects/nft-asset-identifier/contracts/DigitalAssetNFT.sol",
  "compiler": {
    "name": "solc",
    "version": "0.8.19+commit.7dd6d404.Emscripten.clang"
  },
  "schemaVersion": "3.4.16",
  "updatedAt": "2024-07-23T00:38:22.666Z",
  "networkType": "ethereum",
  "devdoc": {
    "kind": "dev",
    "methods": {},
    "version": 1
  },
  "userdoc": {
    "kind": "user",
    "methods": {},
    "version": 1
  }
}